{
  "contractName": "NFTT",
  "abi": [
    {
      "anonymous": false,
      "inputs": [
        {
          "indexed": true,
          "internalType": "address",
          "name": "owner",
          "type": "address"
        },
        {
          "indexed": true,
          "internalType": "address",
          "name": "approved",
          "type": "address"
        },
        {
          "indexed": true,
          "internalType": "uint256",
          "name": "tokenId",
          "type": "uint256"
        }
      ],
      "name": "Approval",
      "type": "event"
    },
    {
      "anonymous": false,
      "inputs": [
        {
          "indexed": true,
          "internalType": "address",
          "name": "owner",
          "type": "address"
        },
        {
          "indexed": true,
          "internalType": "address",
          "name": "operator",
          "type": "address"
        },
        {
          "indexed": false,
          "internalType": "bool",
          "name": "approved",
          "type": "bool"
        }
      ],
      "name": "ApprovalForAll",
      "type": "event"
    },
    {
      "anonymous": false,
      "inputs": [
        {
          "indexed": true,
          "internalType": "address",
          "name": "previousOwner",
          "type": "address"
        },
        {
          "indexed": true,
          "internalType": "address",
          "name": "newOwner",
          "type": "address"
        }
      ],
      "name": "OwnershipTransferred",
      "type": "event"
    },
    {
      "anonymous": false,
      "inputs": [
        {
          "indexed": true,
          "internalType": "address",
          "name": "from",
          "type": "address"
        },
        {
          "indexed": true,
          "internalType": "address",
          "name": "to",
          "type": "address"
        },
        {
          "indexed": true,
          "internalType": "uint256",
          "name": "tokenId",
          "type": "uint256"
        }
      ],
      "name": "Transfer",
      "type": "event"
    },
    {
      "inputs": [
        {
          "internalType": "address",
          "name": "to",
          "type": "address"
        },
        {
          "internalType": "uint256",
          "name": "tokenId",
          "type": "uint256"
        }
      ],
      "name": "approve",
      "outputs": [],
      "stateMutability": "nonpayable",
      "type": "function"
    },
    {
      "inputs": [
        {
          "internalType": "address",
          "name": "owner",
          "type": "address"
        }
      ],
      "name": "balanceOf",
      "outputs": [
        {
          "internalType": "uint256",
          "name": "",
          "type": "uint256"
        }
      ],
      "stateMutability": "view",
      "type": "function",
      "constant": true
    },
    {
      "inputs": [
        {
          "internalType": "uint256",
          "name": "tokenId",
          "type": "uint256"
        }
      ],
      "name": "getApproved",
      "outputs": [
        {
          "internalType": "address",
          "name": "",
          "type": "address"
        }
      ],
      "stateMutability": "view",
      "type": "function",
      "constant": true
    },
    {
      "inputs": [
        {
          "internalType": "address",
          "name": "owner",
          "type": "address"
        },
        {
          "internalType": "address",
          "name": "operator",
          "type": "address"
        }
      ],
      "name": "isApprovedForAll",
      "outputs": [
        {
          "internalType": "bool",
          "name": "",
          "type": "bool"
        }
      ],
      "stateMutability": "view",
      "type": "function",
      "constant": true
    },
    {
      "inputs": [],
      "name": "name",
      "outputs": [
        {
          "internalType": "string",
          "name": "",
          "type": "string"
        }
      ],
      "stateMutability": "view",
      "type": "function",
      "constant": true
    },
    {
      "inputs": [],
      "name": "owner",
      "outputs": [
        {
          "internalType": "address",
          "name": "",
          "type": "address"
        }
      ],
      "stateMutability": "view",
      "type": "function",
      "constant": true
    },
    {
      "inputs": [
        {
          "internalType": "uint256",
          "name": "tokenId",
          "type": "uint256"
        }
      ],
      "name": "ownerOf",
      "outputs": [
        {
          "internalType": "address",
          "name": "",
          "type": "address"
        }
      ],
      "stateMutability": "view",
      "type": "function",
      "constant": true
    },
    {
      "inputs": [],
      "name": "renounceOwnership",
      "outputs": [],
      "stateMutability": "nonpayable",
      "type": "function"
    },
    {
      "inputs": [
        {
          "internalType": "address",
          "name": "from",
          "type": "address"
        },
        {
          "internalType": "address",
          "name": "to",
          "type": "address"
        },
        {
          "internalType": "uint256",
          "name": "tokenId",
          "type": "uint256"
        }
      ],
      "name": "safeTransferFrom",
      "outputs": [],
      "stateMutability": "nonpayable",
      "type": "function"
    },
    {
      "inputs": [
        {
          "internalType": "address",
          "name": "from",
          "type": "address"
        },
        {
          "internalType": "address",
          "name": "to",
          "type": "address"
        },
        {
          "internalType": "uint256",
          "name": "tokenId",
          "type": "uint256"
        },
        {
          "internalType": "bytes",
          "name": "_data",
          "type": "bytes"
        }
      ],
      "name": "safeTransferFrom",
      "outputs": [],
      "stateMutability": "nonpayable",
      "type": "function"
    },
    {
      "inputs": [
        {
          "internalType": "address",
          "name": "operator",
          "type": "address"
        },
        {
          "internalType": "bool",
          "name": "approved",
          "type": "bool"
        }
      ],
      "name": "setApprovalForAll",
      "outputs": [],
      "stateMutability": "nonpayable",
      "type": "function"
    },
    {
      "inputs": [
        {
          "internalType": "bytes4",
          "name": "interfaceId",
          "type": "bytes4"
        }
      ],
      "name": "supportsInterface",
      "outputs": [
        {
          "internalType": "bool",
          "name": "",
          "type": "bool"
        }
      ],
      "stateMutability": "view",
      "type": "function",
      "constant": true
    },
    {
      "inputs": [],
      "name": "symbol",
      "outputs": [
        {
          "internalType": "string",
          "name": "",
          "type": "string"
        }
      ],
      "stateMutability": "view",
      "type": "function",
      "constant": true
    },
    {
      "inputs": [
        {
          "internalType": "uint256",
          "name": "tokenId",
          "type": "uint256"
        }
      ],
      "name": "tokenURI",
      "outputs": [
        {
          "internalType": "string",
          "name": "",
          "type": "string"
        }
      ],
      "stateMutability": "view",
      "type": "function",
      "constant": true
    },
    {
      "inputs": [
        {
          "internalType": "address",
          "name": "from",
          "type": "address"
        },
        {
          "internalType": "address",
          "name": "to",
          "type": "address"
        },
        {
          "internalType": "uint256",
          "name": "tokenId",
          "type": "uint256"
        }
      ],
      "name": "transferFrom",
      "outputs": [],
      "stateMutability": "nonpayable",
      "type": "function"
    },
    {
      "inputs": [
        {
          "internalType": "address",
          "name": "newOwner",
          "type": "address"
        }
      ],
      "name": "transferOwnership",
      "outputs": [],
      "stateMutability": "nonpayable",
      "type": "function"
    },
    {
      "inputs": [],
      "name": "initialize",
      "outputs": [],
      "stateMutability": "nonpayable",
      "type": "function"
    },
    {
      "inputs": [
        {
          "internalType": "string",
          "name": "_newBaseURI",
          "type": "string"
        }
      ],
      "name": "setBaseURI",
      "outputs": [],
      "stateMutability": "nonpayable",
      "type": "function"
    },
    {
      "inputs": [],
      "name": "getAllOnSale",
      "outputs": [
        {
          "components": [
            {
              "internalType": "uint256",
              "name": "id",
              "type": "uint256"
            },
            {
              "internalType": "uint256",
              "name": "price",
              "type": "uint256"
            },
            {
              "internalType": "string",
              "name": "name",
              "type": "string"
            },
            {
              "internalType": "string",
              "name": "uri",
              "type": "string"
            },
            {
              "internalType": "bool",
              "name": "sale",
              "type": "bool"
            }
          ],
          "internalType": "struct NFTT.TokenMeta[]",
          "name": "",
          "type": "tuple[]"
        }
      ],
      "stateMutability": "view",
      "type": "function",
      "constant": true
    },
    {
      "inputs": [
        {
          "internalType": "uint256",
          "name": "_tokenId",
          "type": "uint256"
        },
        {
          "internalType": "bool",
          "name": "_sale",
          "type": "bool"
        },
        {
          "internalType": "uint256",
          "name": "_price",
          "type": "uint256"
        }
      ],
      "name": "setTokenSale",
      "outputs": [],
      "stateMutability": "nonpayable",
      "type": "function"
    },
    {
      "inputs": [
        {
          "internalType": "uint256",
          "name": "_tokenId",
          "type": "uint256"
        },
        {
          "internalType": "uint256",
          "name": "_price",
          "type": "uint256"
        }
      ],
      "name": "setTokenPrice",
      "outputs": [],
      "stateMutability": "nonpayable",
      "type": "function"
    },
    {
      "inputs": [
        {
          "internalType": "uint256",
          "name": "tokenId",
          "type": "uint256"
        }
      ],
      "name": "tokenPrice",
      "outputs": [
        {
          "internalType": "uint256",
          "name": "",
          "type": "uint256"
        }
      ],
      "stateMutability": "view",
      "type": "function",
      "constant": true
    },
    {
      "inputs": [
        {
          "internalType": "uint256",
          "name": "_tokenId",
          "type": "uint256"
        }
      ],
      "name": "tokenMeta",
      "outputs": [
        {
          "components": [
            {
              "internalType": "uint256",
              "name": "id",
              "type": "uint256"
            },
            {
              "internalType": "uint256",
              "name": "price",
              "type": "uint256"
            },
            {
              "internalType": "string",
              "name": "name",
              "type": "string"
            },
            {
              "internalType": "string",
              "name": "uri",
              "type": "string"
            },
            {
              "internalType": "bool",
              "name": "sale",
              "type": "bool"
            }
          ],
          "internalType": "struct NFTT.TokenMeta",
          "name": "",
          "type": "tuple"
        }
      ],
      "stateMutability": "view",
      "type": "function",
      "constant": true
    },
    {
      "inputs": [
        {
          "internalType": "uint256",
          "name": "_tokenId",
          "type": "uint256"
        }
      ],
      "name": "purchaseToken",
      "outputs": [],
      "stateMutability": "payable",
      "type": "function",
      "payable": true
    },
    {
      "inputs": [
        {
          "internalType": "address",
          "name": "_owner",
          "type": "address"
        },
        {
          "internalType": "string",
          "name": "_tokenURI",
          "type": "string"
        },
        {
          "internalType": "string",
          "name": "_name",
          "type": "string"
        },
        {
          "internalType": "uint256",
          "name": "_price",
          "type": "uint256"
        },
        {
          "internalType": "bool",
          "name": "_sale",
          "type": "bool"
        }
      ],
      "name": "mintCollectable",
      "outputs": [
        {
          "internalType": "uint256",
          "name": "",
          "type": "uint256"
        }
      ],
      "stateMutability": "nonpayable",
      "type": "function"
    }
  ],
  "bytecode": "0x608060405234801561001057600080fd5b506148cd806100206000396000f3fe6080604052600436106101665760003560e01c8063715018a6116100d1578063b88d4fde1161008a578063d4ddce8a11610064578063d4ddce8a1461052b578063e985e9c514610568578063eb685c47146105a5578063f2fde38b146105ce57610166565b8063b88d4fde146104a9578063c2db2c42146104d2578063c87b56dd146104ee57610166565b8063715018a6146103d15780638129fc1c146103e85780638da5cb5b146103ff578063908945591461042a57806395d89b4114610455578063a22cb4651461048057610166565b806339b444361161012357806339b444361461029f57806342842e0e146102dc57806355f804b3146103055780636352211e1461032e5780636387ede61461036b57806370a082311461039457610166565b806301ffc9a71461016b57806306fdde03146101a8578063081812fc146101d3578063095ea7b3146102105780630ae7a3101461023957806323b872dd14610276575b600080fd5b34801561017757600080fd5b50610192600480360381019061018d9190612fc2565b6105f7565b60405161019f919061300a565b60405180910390f35b3480156101b457600080fd5b506101bd6106d9565b6040516101ca91906130be565b60405180910390f35b3480156101df57600080fd5b506101fa60048036038101906101f59190613116565b61076b565b6040516102079190613184565b60405180910390f35b34801561021c57600080fd5b50610237600480360381019061023291906131cb565b6107f0565b005b34801561024557600080fd5b50610260600480360381019061025b9190613116565b610908565b60405161026d91906132f0565b60405180910390f35b34801561028257600080fd5b5061029d60048036038101906102989190613312565b610a9a565b005b3480156102ab57600080fd5b506102c660048036038101906102c191906134c6565b610afa565b6040516102d39190613588565b60405180910390f35b3480156102e857600080fd5b5061030360048036038101906102fe9190613312565b610bec565b005b34801561031157600080fd5b5061032c600480360381019061032791906135a3565b610c0c565b005b34801561033a57600080fd5b5061035560048036038101906103509190613116565b610ca2565b6040516103629190613184565b60405180910390f35b34801561037757600080fd5b50610392600480360381019061038d91906135ec565b610d54565b005b3480156103a057600080fd5b506103bb60048036038101906103b6919061363f565b610e2d565b6040516103c89190613588565b60405180910390f35b3480156103dd57600080fd5b506103e6610ee5565b005b3480156103f457600080fd5b506103fd610f6d565b005b34801561040b57600080fd5b506104146110eb565b6040516104219190613184565b60405180910390f35b34801561043657600080fd5b5061043f611115565b60405161044c91906137ab565b60405180910390f35b34801561046157600080fd5b5061046a611387565b60405161047791906130be565b60405180910390f35b34801561048c57600080fd5b506104a760048036038101906104a291906137cd565b611419565b005b3480156104b557600080fd5b506104d060048036038101906104cb91906138ae565b61159a565b005b6104ec60048036038101906104e79190613116565b6115fc565b005b3480156104fa57600080fd5b5061051560048036038101906105109190613116565b61178c565b60405161052291906130be565b60405180910390f35b34801561053757600080fd5b50610552600480360381019061054d9190613116565b611833565b60405161055f9190613588565b60405180910390f35b34801561057457600080fd5b5061058f600480360381019061058a9190613931565b61189b565b60405161059c919061300a565b60405180910390f35b3480156105b157600080fd5b506105cc60048036038101906105c79190613971565b61192f565b005b3480156105da57600080fd5b506105f560048036038101906105f0919061363f565b6119dd565b005b60007f80ac58cd000000000000000000000000000000000000000000000000000000007bffffffffffffffffffffffffffffffffffffffffffffffffffffffff1916827bffffffffffffffffffffffffffffffffffffffffffffffffffffffff191614806106c257507f5b5e139f000000000000000000000000000000000000000000000000000000007bffffffffffffffffffffffffffffffffffffffffffffffffffffffff1916827bffffffffffffffffffffffffffffffffffffffffffffffffffffffff1916145b806106d257506106d182611ad5565b5b9050919050565b6060606580546106e8906139e0565b80601f0160208091040260200160405190810160405280929190818152602001828054610714906139e0565b80156107615780601f1061073657610100808354040283529160200191610761565b820191906000526020600020905b81548152906001019060200180831161074457829003601f168201915b5050505050905090565b600061077682611b3f565b6107b5576040517f08c379a00000000000000000000000000000000000000000000000000000000081526004016107ac90613a84565b60405180910390fd5b6069600083815260200190815260200160002060009054906101000a900473ffffffffffffffffffffffffffffffffffffffff169050919050565b60006107fb82610ca2565b90508073ffffffffffffffffffffffffffffffffffffffff168373ffffffffffffffffffffffffffffffffffffffff16141561086c576040517f08c379a000000000000000000000000000000000000000000000000000000000815260040161086390613b16565b60405180910390fd5b8073ffffffffffffffffffffffffffffffffffffffff1661088b611bab565b73ffffffffffffffffffffffffffffffffffffffff1614806108ba57506108b9816108b4611bab565b61189b565b5b6108f9576040517f08c379a00000000000000000000000000000000000000000000000000000000081526004016108f090613ba8565b60405180910390fd5b6109038383611bb3565b505050565b610910612e82565b61091982611b3f565b61092257600080fd5b60fc60008381526020019081526020016000206040518060a00160405290816000820154815260200160018201548152602001600282018054610964906139e0565b80601f0160208091040260200160405190810160405280929190818152602001828054610990906139e0565b80156109dd5780601f106109b2576101008083540402835291602001916109dd565b820191906000526020600020905b8154815290600101906020018083116109c057829003601f168201915b505050505081526020016003820180546109f6906139e0565b80601f0160208091040260200160405190810160405280929190818152602001828054610a22906139e0565b8015610a6f5780601f10610a4457610100808354040283529160200191610a6f565b820191906000526020600020905b815481529060010190602001808311610a5257829003601f168201915b505050505081526020016004820160009054906101000a900460ff1615151515815250509050919050565b610aab610aa5611bab565b82611c6c565b610aea576040517f08c379a0000000000000000000000000000000000000000000000000000000008152600401610ae190613c3a565b60405180910390fd5b610af5838383611d4a565b505050565b6000610b04611bab565b73ffffffffffffffffffffffffffffffffffffffff16610b226110eb565b73ffffffffffffffffffffffffffffffffffffffff1614610b78576040517f08c379a0000000000000000000000000000000000000000000000000000000008152600401610b6f90613ca6565b60405180910390fd5b60008311610b8557600080fd5b610b8f60fb611fa6565b6000610b9b60fb611fbc565b9050610ba78782611fca565b60006040518060a001604052808381526020018681526020018781526020018881526020018515158152509050610bde8282612198565b819250505095945050505050565b610c078383836040518060200160405280600081525061159a565b505050565b610c14611bab565b73ffffffffffffffffffffffffffffffffffffffff16610c326110eb565b73ffffffffffffffffffffffffffffffffffffffff1614610c88576040517f08c379a0000000000000000000000000000000000000000000000000000000008152600401610c7f90613ca6565b60405180910390fd5b8060fd9080519060200190610c9e929190612eb3565b5050565b6000806067600084815260200190815260200160002060009054906101000a900473ffffffffffffffffffffffffffffffffffffffff169050600073ffffffffffffffffffffffffffffffffffffffff168173ffffffffffffffffffffffffffffffffffffffff161415610d4b576040517f08c379a0000000000000000000000000000000000000000000000000000000008152600401610d4290613d38565b60405180910390fd5b80915050919050565b610d5d83611b3f565b610d9c576040517f08c379a0000000000000000000000000000000000000000000000000000000008152600401610d9390613dca565b60405180910390fd5b60008111610da957600080fd5b610db1611bab565b73ffffffffffffffffffffffffffffffffffffffff16610dd084610ca2565b73ffffffffffffffffffffffffffffffffffffffff1614610df057600080fd5b8160fc600085815260200190815260200160002060040160006101000a81548160ff021916908315150217905550610e28838261192f565b505050565b60008073ffffffffffffffffffffffffffffffffffffffff168273ffffffffffffffffffffffffffffffffffffffff161415610e9e576040517f08c379a0000000000000000000000000000000000000000000000000000000008152600401610e9590613e5c565b60405180910390fd5b606860008373ffffffffffffffffffffffffffffffffffffffff1673ffffffffffffffffffffffffffffffffffffffff168152602001908152602001600020549050919050565b610eed611bab565b73ffffffffffffffffffffffffffffffffffffffff16610f0b6110eb565b73ffffffffffffffffffffffffffffffffffffffff1614610f61576040517f08c379a0000000000000000000000000000000000000000000000000000000008152600401610f5890613ca6565b60405180910390fd5b610f6b600061227a565b565b600060019054906101000a900460ff1680610f93575060008054906101000a900460ff16155b610fd2576040517f08c379a0000000000000000000000000000000000000000000000000000000008152600401610fc990613eee565b60405180910390fd5b60008060019054906101000a900460ff161590508015611022576001600060016101000a81548160ff02191690831515021790555060016000806101000a81548160ff0219169083151502179055505b61102a612340565b611032612429565b6110a66040518060400160405280600481526020017f4e465454000000000000000000000000000000000000000000000000000000008152506040518060400160405280600481526020017f4e4654540000000000000000000000000000000000000000000000000000000081525061250a565b6110c760405180608001604052806044815260200161485460449139610c0c565b80156110e85760008060016101000a81548160ff0219169083151502179055505b50565b6000609760009054906101000a900473ffffffffffffffffffffffffffffffffffffffff16905090565b6060600061112360fb611fbc565b67ffffffffffffffff81111561113c5761113b61336f565b5b60405190808252806020026020018201604052801561117557816020015b611162612e82565b81526020019060019003908161115a5790505b509050600080600190505b600161118c60fb611fbc565b6111969190613f3d565b81101561137e576001151560fc600083815260200190815260200160002060040160009054906101000a900460ff161515141561136b5760fc60008281526020019081526020016000206040518060a0016040529081600082015481526020016001820154815260200160028201805461120f906139e0565b80601f016020809104026020016040519081016040528092919081815260200182805461123b906139e0565b80156112885780601f1061125d57610100808354040283529160200191611288565b820191906000526020600020905b81548152906001019060200180831161126b57829003601f168201915b505050505081526020016003820180546112a1906139e0565b80601f01602080910402602001604051908101604052809291908181526020018280546112cd906139e0565b801561131a5780601f106112ef5761010080835404028352916020019161131a565b820191906000526020600020905b8154815290600101906020018083116112fd57829003601f168201915b505050505081526020016004820160009054906101000a900460ff16151515158152505083838151811061135157611350613f93565b5b6020026020010181905250818061136790613fc2565b9250505b808061137690613fc2565b915050611180565b50819250505090565b606060668054611396906139e0565b80601f01602080910402602001604051908101604052809291908181526020018280546113c2906139e0565b801561140f5780601f106113e45761010080835404028352916020019161140f565b820191906000526020600020905b8154815290600101906020018083116113f257829003601f168201915b5050505050905090565b611421611bab565b73ffffffffffffffffffffffffffffffffffffffff168273ffffffffffffffffffffffffffffffffffffffff16141561148f576040517f08c379a000000000000000000000000000000000000000000000000000000000815260040161148690614057565b60405180910390fd5b80606a600061149c611bab565b73ffffffffffffffffffffffffffffffffffffffff1673ffffffffffffffffffffffffffffffffffffffff16815260200190815260200160002060008473ffffffffffffffffffffffffffffffffffffffff1673ffffffffffffffffffffffffffffffffffffffff16815260200190815260200160002060006101000a81548160ff0219169083151502179055508173ffffffffffffffffffffffffffffffffffffffff16611549611bab565b73ffffffffffffffffffffffffffffffffffffffff167f17307eab39ab6107e8899845ad3d59bd9653f200f220920489ca2b5937696c318360405161158e919061300a565b60405180910390a35050565b6115ab6115a5611bab565b83611c6c565b6115ea576040517f08c379a00000000000000000000000000000000000000000000000000000000081526004016115e190613c3a565b60405180910390fd5b6115f6848484846125ff565b50505050565b600260c9541415611642576040517f08c379a0000000000000000000000000000000000000000000000000000000008152600401611639906140c3565b60405180910390fd5b600260c981905550600073ffffffffffffffffffffffffffffffffffffffff163373ffffffffffffffffffffffffffffffffffffffff16141580156116bb575061168b81610ca2565b73ffffffffffffffffffffffffffffffffffffffff163373ffffffffffffffffffffffffffffffffffffffff1614155b6116c457600080fd5b60fc6000828152602001908152602001600020600101543410156116e757600080fd5b60006116f282610ca2565b90508073ffffffffffffffffffffffffffffffffffffffff166108fc349081150290604051600060405180830381858888f1935050505015801561173a573d6000803e3d6000fd5b50611746816001611419565b611751813384611d4a565b600060fc600084815260200190815260200160002060040160006101000a81548160ff02191690831515021790555050600160c98190555050565b606061179782611b3f565b6117d6576040517f08c379a00000000000000000000000000000000000000000000000000000000081526004016117cd90614155565b60405180910390fd5b60006117e061265b565b90506000815111611800576040518060200160405280600081525061182b565b8061180a846126ed565b60405160200161181b9291906141b1565b6040516020818303038152906040525b915050919050565b600061183e82611b3f565b61187d576040517f08c379a000000000000000000000000000000000000000000000000000000000815260040161187490614247565b60405180910390fd5b60fc6000838152602001908152602001600020600101549050919050565b6000606a60008473ffffffffffffffffffffffffffffffffffffffff1673ffffffffffffffffffffffffffffffffffffffff16815260200190815260200160002060008373ffffffffffffffffffffffffffffffffffffffff1673ffffffffffffffffffffffffffffffffffffffff16815260200190815260200160002060009054906101000a900460ff16905092915050565b61193882611b3f565b611977576040517f08c379a000000000000000000000000000000000000000000000000000000000815260040161196e906142d9565b60405180910390fd5b61197f611bab565b73ffffffffffffffffffffffffffffffffffffffff1661199e83610ca2565b73ffffffffffffffffffffffffffffffffffffffff16146119be57600080fd5b8060fc6000848152602001908152602001600020600101819055505050565b6119e5611bab565b73ffffffffffffffffffffffffffffffffffffffff16611a036110eb565b73ffffffffffffffffffffffffffffffffffffffff1614611a59576040517f08c379a0000000000000000000000000000000000000000000000000000000008152600401611a5090613ca6565b60405180910390fd5b600073ffffffffffffffffffffffffffffffffffffffff168173ffffffffffffffffffffffffffffffffffffffff161415611ac9576040517f08c379a0000000000000000000000000000000000000000000000000000000008152600401611ac09061436b565b60405180910390fd5b611ad28161227a565b50565b60007f01ffc9a7000000000000000000000000000000000000000000000000000000007bffffffffffffffffffffffffffffffffffffffffffffffffffffffff1916827bffffffffffffffffffffffffffffffffffffffffffffffffffffffff1916149050919050565b60008073ffffffffffffffffffffffffffffffffffffffff166067600084815260200190815260200160002060009054906101000a900473ffffffffffffffffffffffffffffffffffffffff1673ffffffffffffffffffffffffffffffffffffffff1614159050919050565b600033905090565b816069600083815260200190815260200160002060006101000a81548173ffffffffffffffffffffffffffffffffffffffff021916908373ffffffffffffffffffffffffffffffffffffffff160217905550808273ffffffffffffffffffffffffffffffffffffffff16611c2683610ca2565b73ffffffffffffffffffffffffffffffffffffffff167f8c5be1e5ebec7d5bd14f71427d1e84f3dd0314c0f7b2291e5b200ac8c7c3b92560405160405180910390a45050565b6000611c7782611b3f565b611cb6576040517f08c379a0000000000000000000000000000000000000000000000000000000008152600401611cad906143fd565b60405180910390fd5b6000611cc183610ca2565b90508073ffffffffffffffffffffffffffffffffffffffff168473ffffffffffffffffffffffffffffffffffffffff161480611d3057508373ffffffffffffffffffffffffffffffffffffffff16611d188461076b565b73ffffffffffffffffffffffffffffffffffffffff16145b80611d415750611d40818561189b565b5b91505092915050565b8273ffffffffffffffffffffffffffffffffffffffff16611d6a82610ca2565b73ffffffffffffffffffffffffffffffffffffffff1614611dc0576040517f08c379a0000000000000000000000000000000000000000000000000000000008152600401611db79061448f565b60405180910390fd5b600073ffffffffffffffffffffffffffffffffffffffff168273ffffffffffffffffffffffffffffffffffffffff161415611e30576040517f08c379a0000000000000000000000000000000000000000000000000000000008152600401611e2790614521565b60405180910390fd5b611e3b83838361284e565b611e46600082611bb3565b6001606860008573ffffffffffffffffffffffffffffffffffffffff1673ffffffffffffffffffffffffffffffffffffffff1681526020019081526020016000206000828254611e969190614541565b925050819055506001606860008473ffffffffffffffffffffffffffffffffffffffff1673ffffffffffffffffffffffffffffffffffffffff1681526020019081526020016000206000828254611eed9190613f3d565b92505081905550816067600083815260200190815260200160002060006101000a81548173ffffffffffffffffffffffffffffffffffffffff021916908373ffffffffffffffffffffffffffffffffffffffff160217905550808273ffffffffffffffffffffffffffffffffffffffff168473ffffffffffffffffffffffffffffffffffffffff167fddf252ad1be2c89b69c2b068fc378daa952ba7f163c4a11628f55a4df523b3ef60405160405180910390a4505050565b6001816000016000828254019250508190555050565b600081600001549050919050565b600073ffffffffffffffffffffffffffffffffffffffff168273ffffffffffffffffffffffffffffffffffffffff16141561203a576040517f08c379a0000000000000000000000000000000000000000000000000000000008152600401612031906145c1565b60405180910390fd5b61204381611b3f565b15612083576040517f08c379a000000000000000000000000000000000000000000000000000000000815260040161207a9061462d565b60405180910390fd5b61208f6000838361284e565b6001606860008473ffffffffffffffffffffffffffffffffffffffff1673ffffffffffffffffffffffffffffffffffffffff16815260200190815260200160002060008282546120df9190613f3d565b92505081905550816067600083815260200190815260200160002060006101000a81548173ffffffffffffffffffffffffffffffffffffffff021916908373ffffffffffffffffffffffffffffffffffffffff160217905550808273ffffffffffffffffffffffffffffffffffffffff16600073ffffffffffffffffffffffffffffffffffffffff167fddf252ad1be2c89b69c2b068fc378daa952ba7f163c4a11628f55a4df523b3ef60405160405180910390a45050565b6121a182611b3f565b6121aa57600080fd5b6121b2611bab565b73ffffffffffffffffffffffffffffffffffffffff166121d183610ca2565b73ffffffffffffffffffffffffffffffffffffffff16146121f157600080fd5b8060fc600084815260200190815260200160002060008201518160000155602082015181600101556040820151816002019080519060200190612235929190612eb3565b506060820151816003019080519060200190612252929190612eb3565b5060808201518160040160006101000a81548160ff0219169083151502179055509050505050565b6000609760009054906101000a900473ffffffffffffffffffffffffffffffffffffffff16905081609760006101000a81548173ffffffffffffffffffffffffffffffffffffffff021916908373ffffffffffffffffffffffffffffffffffffffff1602179055508173ffffffffffffffffffffffffffffffffffffffff168173ffffffffffffffffffffffffffffffffffffffff167f8be0079c531659141344cd1fd0a4f28419497f9722a3daafe3b4186f6b6457e060405160405180910390a35050565b600060019054906101000a900460ff1680612366575060008054906101000a900460ff16155b6123a5576040517f08c379a000000000000000000000000000000000000000000000000000000000815260040161239c90613eee565b60405180910390fd5b60008060019054906101000a900460ff1615905080156123f5576001600060016101000a81548160ff02191690831515021790555060016000806101000a81548160ff0219169083151502179055505b6123fd612853565b61240561292c565b80156124265760008060016101000a81548160ff0219169083151502179055505b50565b600060019054906101000a900460ff168061244f575060008054906101000a900460ff16155b61248e576040517f08c379a000000000000000000000000000000000000000000000000000000000815260040161248590613eee565b60405180910390fd5b60008060019054906101000a900460ff1615905080156124de576001600060016101000a81548160ff02191690831515021790555060016000806101000a81548160ff0219169083151502179055505b6124e6612a15565b80156125075760008060016101000a81548160ff0219169083151502179055505b50565b600060019054906101000a900460ff1680612530575060008054906101000a900460ff16155b61256f576040517f08c379a000000000000000000000000000000000000000000000000000000000815260040161256690613eee565b60405180910390fd5b60008060019054906101000a900460ff1615905080156125bf576001600060016101000a81548160ff02191690831515021790555060016000806101000a81548160ff0219169083151502179055505b6125c7612853565b6125cf612af6565b6125d98383612bcf565b80156125fa5760008060016101000a81548160ff0219169083151502179055505b505050565b61260a848484611d4a565b61261684848484612cd8565b612655576040517f08c379a000000000000000000000000000000000000000000000000000000000815260040161264c906146bf565b60405180910390fd5b50505050565b606060fd805461266a906139e0565b80601f0160208091040260200160405190810160405280929190818152602001828054612696906139e0565b80156126e35780601f106126b8576101008083540402835291602001916126e3565b820191906000526020600020905b8154815290600101906020018083116126c657829003601f168201915b5050505050905090565b60606000821415612735576040518060400160405280600181526020017f30000000000000000000000000000000000000000000000000000000000000008152509050612849565b600082905060005b6000821461276757808061275090613fc2565b915050600a82612760919061470e565b915061273d565b60008167ffffffffffffffff8111156127835761278261336f565b5b6040519080825280601f01601f1916602001820160405280156127b55781602001600182028036833780820191505090505b5090505b60008514612842576001826127ce9190614541565b9150600a856127dd919061473f565b60306127e99190613f3d565b60f81b8183815181106127ff576127fe613f93565b5b60200101907effffffffffffffffffffffffffffffffffffffffffffffffffffffffffffff1916908160001a905350600a8561283b919061470e565b94506127b9565b8093505050505b919050565b505050565b600060019054906101000a900460ff1680612879575060008054906101000a900460ff16155b6128b8576040517f08c379a00000000000000000000000000000000000000000000000000000000081526004016128af90613eee565b60405180910390fd5b60008060019054906101000a900460ff161590508015612908576001600060016101000a81548160ff02191690831515021790555060016000806101000a81548160ff0219169083151502179055505b80156129295760008060016101000a81548160ff0219169083151502179055505b50565b600060019054906101000a900460ff1680612952575060008054906101000a900460ff16155b612991576040517f08c379a000000000000000000000000000000000000000000000000000000000815260040161298890613eee565b60405180910390fd5b60008060019054906101000a900460ff1615905080156129e1576001600060016101000a81548160ff02191690831515021790555060016000806101000a81548160ff0219169083151502179055505b6129f16129ec611bab565b61227a565b8015612a125760008060016101000a81548160ff0219169083151502179055505b50565b600060019054906101000a900460ff1680612a3b575060008054906101000a900460ff16155b612a7a576040517f08c379a0000000000000000000000000000000000000000000000000000000008152600401612a7190613eee565b60405180910390fd5b60008060019054906101000a900460ff161590508015612aca576001600060016101000a81548160ff02191690831515021790555060016000806101000a81548160ff0219169083151502179055505b600160c9819055508015612af35760008060016101000a81548160ff0219169083151502179055505b50565b600060019054906101000a900460ff1680612b1c575060008054906101000a900460ff16155b612b5b576040517f08c379a0000000000000000000000000000000000000000000000000000000008152600401612b5290613eee565b60405180910390fd5b60008060019054906101000a900460ff161590508015612bab576001600060016101000a81548160ff02191690831515021790555060016000806101000a81548160ff0219169083151502179055505b8015612bcc5760008060016101000a81548160ff0219169083151502179055505b50565b600060019054906101000a900460ff1680612bf5575060008054906101000a900460ff16155b612c34576040517f08c379a0000000000000000000000000000000000000000000000000000000008152600401612c2b90613eee565b60405180910390fd5b60008060019054906101000a900460ff161590508015612c84576001600060016101000a81548160ff02191690831515021790555060016000806101000a81548160ff0219169083151502179055505b8260659080519060200190612c9a929190612eb3565b508160669080519060200190612cb1929190612eb3565b508015612cd35760008060016101000a81548160ff0219169083151502179055505b505050565b6000612cf98473ffffffffffffffffffffffffffffffffffffffff16612e6f565b15612e62578373ffffffffffffffffffffffffffffffffffffffff1663150b7a02612d22611bab565b8786866040518563ffffffff1660e01b8152600401612d4494939291906147c5565b602060405180830381600087803b158015612d5e57600080fd5b505af1925050508015612d8f57506040513d601f19601f82011682018060405250810190612d8c9190614826565b60015b612e12573d8060008114612dbf576040519150601f19603f3d011682016040523d82523d6000602084013e612dc4565b606091505b50600081511415612e0a576040517f08c379a0000000000000000000000000000000000000000000000000000000008152600401612e01906146bf565b60405180910390fd5b805181602001fd5b63150b7a0260e01b7bffffffffffffffffffffffffffffffffffffffffffffffffffffffff1916817bffffffffffffffffffffffffffffffffffffffffffffffffffffffff191614915050612e67565b600190505b949350505050565b600080823b905060008111915050919050565b6040518060a00160405280600081526020016000815260200160608152602001606081526020016000151581525090565b828054612ebf906139e0565b90600052602060002090601f016020900481019282612ee15760008555612f28565b82601f10612efa57805160ff1916838001178555612f28565b82800160010185558215612f28579182015b82811115612f27578251825591602001919060010190612f0c565b5b509050612f359190612f39565b5090565b5b80821115612f52576000816000905550600101612f3a565b5090565b6000604051905090565b600080fd5b600080fd5b60007fffffffff0000000000000000000000000000000000000000000000000000000082169050919050565b612f9f81612f6a565b8114612faa57600080fd5b50565b600081359050612fbc81612f96565b92915050565b600060208284031215612fd857612fd7612f60565b5b6000612fe684828501612fad565b91505092915050565b60008115159050919050565b61300481612fef565b82525050565b600060208201905061301f6000830184612ffb565b92915050565b600081519050919050565b600082825260208201905092915050565b60005b8381101561305f578082015181840152602081019050613044565b8381111561306e576000848401525b50505050565b6000601f19601f8301169050919050565b600061309082613025565b61309a8185613030565b93506130aa818560208601613041565b6130b381613074565b840191505092915050565b600060208201905081810360008301526130d88184613085565b905092915050565b6000819050919050565b6130f3816130e0565b81146130fe57600080fd5b50565b600081359050613110816130ea565b92915050565b60006020828403121561312c5761312b612f60565b5b600061313a84828501613101565b91505092915050565b600073ffffffffffffffffffffffffffffffffffffffff82169050919050565b600061316e82613143565b9050919050565b61317e81613163565b82525050565b60006020820190506131996000830184613175565b92915050565b6131a881613163565b81146131b357600080fd5b50565b6000813590506131c58161319f565b92915050565b600080604083850312156131e2576131e1612f60565b5b60006131f0858286016131b6565b925050602061320185828601613101565b9150509250929050565b613214816130e0565b82525050565b600082825260208201905092915050565b600061323682613025565b613240818561321a565b9350613250818560208601613041565b61325981613074565b840191505092915050565b61326d81612fef565b82525050565b600060a08301600083015161328b600086018261320b565b50602083015161329e602086018261320b565b50604083015184820360408601526132b6828261322b565b915050606083015184820360608601526132d0828261322b565b91505060808301516132e56080860182613264565b508091505092915050565b6000602082019050818103600083015261330a8184613273565b905092915050565b60008060006060848603121561332b5761332a612f60565b5b6000613339868287016131b6565b935050602061334a868287016131b6565b925050604061335b86828701613101565b9150509250925092565b600080fd5b600080fd5b7f4e487b7100000000000000000000000000000000000000000000000000000000600052604160045260246000fd5b6133a782613074565b810181811067ffffffffffffffff821117156133c6576133c561336f565b5b80604052505050565b60006133d9612f56565b90506133e5828261339e565b919050565b600067ffffffffffffffff8211156134055761340461336f565b5b61340e82613074565b9050602081019050919050565b82818337600083830152505050565b600061343d613438846133ea565b6133cf565b9050828152602081018484840111156134595761345861336a565b5b61346484828561341b565b509392505050565b600082601f83011261348157613480613365565b5b813561349184826020860161342a565b91505092915050565b6134a381612fef565b81146134ae57600080fd5b50565b6000813590506134c08161349a565b92915050565b600080600080600060a086880312156134e2576134e1612f60565b5b60006134f0888289016131b6565b955050602086013567ffffffffffffffff81111561351157613510612f65565b5b61351d8882890161346c565b945050604086013567ffffffffffffffff81111561353e5761353d612f65565b5b61354a8882890161346c565b935050606061355b88828901613101565b925050608061356c888289016134b1565b9150509295509295909350565b613582816130e0565b82525050565b600060208201905061359d6000830184613579565b92915050565b6000602082840312156135b9576135b8612f60565b5b600082013567ffffffffffffffff8111156135d7576135d6612f65565b5b6135e38482850161346c565b91505092915050565b60008060006060848603121561360557613604612f60565b5b600061361386828701613101565b9350506020613624868287016134b1565b925050604061363586828701613101565b9150509250925092565b60006020828403121561365557613654612f60565b5b6000613663848285016131b6565b91505092915050565b600081519050919050565b600082825260208201905092915050565b6000819050602082019050919050565b600060a0830160008301516136b0600086018261320b565b5060208301516136c3602086018261320b565b50604083015184820360408601526136db828261322b565b915050606083015184820360608601526136f5828261322b565b915050608083015161370a6080860182613264565b508091505092915050565b60006137218383613698565b905092915050565b6000602082019050919050565b60006137418261366c565b61374b8185613677565b93508360208202850161375d85613688565b8060005b85811015613799578484038952815161377a8582613715565b945061378583613729565b925060208a01995050600181019050613761565b50829750879550505050505092915050565b600060208201905081810360008301526137c58184613736565b905092915050565b600080604083850312156137e4576137e3612f60565b5b60006137f2858286016131b6565b9250506020613803858286016134b1565b9150509250929050565b600067ffffffffffffffff8211156138285761382761336f565b5b61383182613074565b9050602081019050919050565b600061385161384c8461380d565b6133cf565b90508281526020810184848401111561386d5761386c61336a565b5b61387884828561341b565b509392505050565b600082601f83011261389557613894613365565b5b81356138a584826020860161383e565b91505092915050565b600080600080608085870312156138c8576138c7612f60565b5b60006138d6878288016131b6565b94505060206138e7878288016131b6565b93505060406138f887828801613101565b925050606085013567ffffffffffffffff81111561391957613918612f65565b5b61392587828801613880565b91505092959194509250565b6000806040838503121561394857613947612f60565b5b6000613956858286016131b6565b9250506020613967858286016131b6565b9150509250929050565b6000806040838503121561398857613987612f60565b5b600061399685828601613101565b92505060206139a785828601613101565b9150509250929050565b7f4e487b7100000000000000000000000000000000000000000000000000000000600052602260045260246000fd5b600060028204905060018216806139f857607f821691505b60208210811415613a0c57613a0b6139b1565b5b50919050565b7f4552433732313a20617070726f76656420717565727920666f72206e6f6e657860008201527f697374656e7420746f6b656e0000000000000000000000000000000000000000602082015250565b6000613a6e602c83613030565b9150613a7982613a12565b604082019050919050565b60006020820190508181036000830152613a9d81613a61565b9050919050565b7f4552433732313a20617070726f76616c20746f2063757272656e74206f776e6560008201527f7200000000000000000000000000000000000000000000000000000000000000602082015250565b6000613b00602183613030565b9150613b0b82613aa4565b604082019050919050565b60006020820190508181036000830152613b2f81613af3565b9050919050565b7f4552433732313a20617070726f76652063616c6c6572206973206e6f74206f7760008201527f6e6572206e6f7220617070726f76656420666f7220616c6c0000000000000000602082015250565b6000613b92603883613030565b9150613b9d82613b36565b604082019050919050565b60006020820190508181036000830152613bc181613b85565b9050919050565b7f4552433732313a207472616e736665722063616c6c6572206973206e6f74206f60008201527f776e6572206e6f7220617070726f766564000000000000000000000000000000602082015250565b6000613c24603183613030565b9150613c2f82613bc8565b604082019050919050565b60006020820190508181036000830152613c5381613c17565b9050919050565b7f4f776e61626c653a2063616c6c6572206973206e6f7420746865206f776e6572600082015250565b6000613c90602083613030565b9150613c9b82613c5a565b602082019050919050565b60006020820190508181036000830152613cbf81613c83565b9050919050565b7f4552433732313a206f776e657220717565727920666f72206e6f6e657869737460008201527f656e7420746f6b656e0000000000000000000000000000000000000000000000602082015250565b6000613d22602983613030565b9150613d2d82613cc6565b604082019050919050565b60006020820190508181036000830152613d5181613d15565b9050919050565b7f4552433732314d657461646174613a2053616c6520736574206f66206e6f6e6560008201527f78697374656e7420746f6b656e00000000000000000000000000000000000000602082015250565b6000613db4602d83613030565b9150613dbf82613d58565b604082019050919050565b60006020820190508181036000830152613de381613da7565b9050919050565b7f4552433732313a2062616c616e636520717565727920666f7220746865207a6560008201527f726f206164647265737300000000000000000000000000000000000000000000602082015250565b6000613e46602a83613030565b9150613e5182613dea565b604082019050919050565b60006020820190508181036000830152613e7581613e39565b9050919050565b7f496e697469616c697a61626c653a20636f6e747261637420697320616c72656160008201527f647920696e697469616c697a6564000000000000000000000000000000000000602082015250565b6000613ed8602e83613030565b9150613ee382613e7c565b604082019050919050565b60006020820190508181036000830152613f0781613ecb565b9050919050565b7f4e487b7100000000000000000000000000000000000000000000000000000000600052601160045260246000fd5b6000613f48826130e0565b9150613f53836130e0565b9250827fffffffffffffffffffffffffffffffffffffffffffffffffffffffffffffffff03821115613f8857613f87613f0e565b5b828201905092915050565b7f4e487b7100000000000000000000000000000000000000000000000000000000600052603260045260246000fd5b6000613fcd826130e0565b91507fffffffffffffffffffffffffffffffffffffffffffffffffffffffffffffffff82141561400057613fff613f0e565b5b600182019050919050565b7f4552433732313a20617070726f766520746f2063616c6c657200000000000000600082015250565b6000614041601983613030565b915061404c8261400b565b602082019050919050565b6000602082019050818103600083015261407081614034565b9050919050565b7f5265656e7472616e637947756172643a207265656e7472616e742063616c6c00600082015250565b60006140ad601f83613030565b91506140b882614077565b602082019050919050565b600060208201905081810360008301526140dc816140a0565b9050919050565b7f4552433732314d657461646174613a2055524920717565727920666f72206e6f60008201527f6e6578697374656e7420746f6b656e0000000000000000000000000000000000602082015250565b600061413f602f83613030565b915061414a826140e3565b604082019050919050565b6000602082019050818103600083015261416e81614132565b9050919050565b600081905092915050565b600061418b82613025565b6141958185614175565b93506141a5818560208601613041565b80840191505092915050565b60006141bd8285614180565b91506141c98284614180565b91508190509392505050565b7f4552433732314d657461646174613a20507269636520717565727920666f722060008201527f6e6f6e6578697374656e7420746f6b656e000000000000000000000000000000602082015250565b6000614231603183613030565b915061423c826141d5565b604082019050919050565b6000602082019050818103600083015261426081614224565b9050919050565b7f4552433732314d657461646174613a20507269636520736574206f66206e6f6e60008201527f6578697374656e7420746f6b656e000000000000000000000000000000000000602082015250565b60006142c3602e83613030565b91506142ce82614267565b604082019050919050565b600060208201905081810360008301526142f2816142b6565b9050919050565b7f4f776e61626c653a206e6577206f776e657220697320746865207a65726f206160008201527f6464726573730000000000000000000000000000000000000000000000000000602082015250565b6000614355602683613030565b9150614360826142f9565b604082019050919050565b6000602082019050818103600083015261438481614348565b9050919050565b7f4552433732313a206f70657261746f7220717565727920666f72206e6f6e657860008201527f697374656e7420746f6b656e0000000000000000000000000000000000000000602082015250565b60006143e7602c83613030565b91506143f28261438b565b604082019050919050565b60006020820190508181036000830152614416816143da565b9050919050565b7f4552433732313a207472616e73666572206f6620746f6b656e2074686174206960008201527f73206e6f74206f776e0000000000000000000000000000000000000000000000602082015250565b6000614479602983613030565b91506144848261441d565b604082019050919050565b600060208201905081810360008301526144a88161446c565b9050919050565b7f4552433732313a207472616e7366657220746f20746865207a65726f2061646460008201527f7265737300000000000000000000000000000000000000000000000000000000602082015250565b600061450b602483613030565b9150614516826144af565b604082019050919050565b6000602082019050818103600083015261453a816144fe565b9050919050565b600061454c826130e0565b9150614557836130e0565b92508282101561456a57614569613f0e565b5b828203905092915050565b7f4552433732313a206d696e7420746f20746865207a65726f2061646472657373600082015250565b60006145ab602083613030565b91506145b682614575565b602082019050919050565b600060208201905081810360008301526145da8161459e565b9050919050565b7f4552433732313a20746f6b656e20616c7265616479206d696e74656400000000600082015250565b6000614617601c83613030565b9150614622826145e1565b602082019050919050565b600060208201905081810360008301526146468161460a565b9050919050565b7f4552433732313a207472616e7366657220746f206e6f6e20455243373231526560008201527f63656976657220696d706c656d656e7465720000000000000000000000000000602082015250565b60006146a9603283613030565b91506146b48261464d565b604082019050919050565b600060208201905081810360008301526146d88161469c565b9050919050565b7f4e487b7100000000000000000000000000000000000000000000000000000000600052601260045260246000fd5b6000614719826130e0565b9150614724836130e0565b925082614734576147336146df565b5b828204905092915050565b600061474a826130e0565b9150614755836130e0565b925082614765576147646146df565b5b828206905092915050565b600081519050919050565b600082825260208201905092915050565b600061479782614770565b6147a1818561477b565b93506147b1818560208601613041565b6147ba81613074565b840191505092915050565b60006080820190506147da6000830187613175565b6147e76020830186613175565b6147f46040830185613579565b8181036060830152614806818461478c565b905095945050505050565b60008151905061482081612f96565b92915050565b60006020828403121561483c5761483b612f60565b5b600061484a84828501614811565b9150509291505056fe68747470733a2f2f726832357132347476662e657865637574652d6170692e65752d776573742d322e616d617a6f6e6177732e636f6d2f6465762f746f6b656e3f69643da264697066735822122090a17222ac023d830ebbcac2b393f7ed24d4749a038f9cb8174024d8a69115db64736f6c63430008090033",
  "immutableReferences": {},
  "source": "// SPDX-License-Identifier: MIT\npragma solidity >=0.4.22 <0.9.0;\npragma experimental ABIEncoderV2;\n\nimport \"../node_modules/@openzeppelin/contracts-upgradeable/token/ERC721/ERC721Upgradeable.sol\";\nimport \"../node_modules/@openzeppelin/contracts-upgradeable/access/OwnableUpgradeable.sol\";\nimport \"../node_modules/@openzeppelin/contracts-upgradeable/security/ReentrancyGuardUpgradeable.sol\";\nimport \"../node_modules/@openzeppelin/contracts-upgradeable/utils/CountersUpgradeable.sol\";\n\ncontract NFTT is ERC721Upgradeable, OwnableUpgradeable, ReentrancyGuardUpgradeable {\n    using CountersUpgradeable for CountersUpgradeable.Counter;\n    CountersUpgradeable.Counter private _tokenIds;\n\n    mapping (uint256 => TokenMeta) private _tokenMeta;\n\n    string baseURI;\n\n    struct TokenMeta {\n        uint256 id;\n        uint256 price;\n        string name;\n        string uri;\n        bool sale;\n    }\n\n    function initialize() public initializer {\n        OwnableUpgradeable.__Ownable_init();\n        ReentrancyGuardUpgradeable.__ReentrancyGuard_init();\n        ERC721Upgradeable.__ERC721_init(\"NFTT\", \"NFTT\");\n        setBaseURI(\"https://rh25q24tvf.execute-api.eu-west-2.amazonaws.com/dev/token?id=\");\n    }\n\n    /**\n     * @dev Base URI for computing {tokenURI}. Empty by default, can be overriden\n     * in child contracts.\n     */\n    function _baseURI() internal view override virtual returns (string memory) {\n        return baseURI;\n    }\n\n    function setBaseURI(string memory _newBaseURI) public virtual onlyOwner {\n        baseURI = _newBaseURI;\n    }\n\n    function getAllOnSale () public view virtual returns( TokenMeta[] memory ) {\n        TokenMeta[] memory tokensOnSale = new TokenMeta[](_tokenIds.current());\n        uint256 counter = 0;\n\n        for(uint i = 1; i < _tokenIds.current() + 1; i++) {\n            if(_tokenMeta[i].sale == true) {\n                tokensOnSale[counter] = _tokenMeta[i];\n                counter++;\n            }\n        }\n        return tokensOnSale;\n    }\n\n    /**\n     * @dev sets maps token to its price\n     * @param _tokenId uint256 token ID (token number)\n     * @param _sale bool token on sale\n     * @param _price unit256 token price\n     * \n     * Requirements: \n     * `tokenId` must exist\n     * `price` must be more than 0\n     * `owner` must the msg.owner\n     */\n    function setTokenSale(uint256 _tokenId, bool _sale, uint256 _price) public {\n        require(_exists(_tokenId), \"ERC721Metadata: Sale set of nonexistent token\");\n        require(_price > 0);\n        require(ownerOf(_tokenId) == _msgSender());\n\n        _tokenMeta[_tokenId].sale = _sale;\n        setTokenPrice(_tokenId, _price);\n    }\n\n    /**\n     * @dev sets maps token to its price\n     * @param _tokenId uint256 token ID (token number)\n     * @param _price uint256 token price\n     * \n     * Requirements: \n     * `tokenId` must exist\n     * `owner` must the msg.owner\n     */\n    function setTokenPrice(uint256 _tokenId, uint256 _price) public {\n        require(_exists(_tokenId), \"ERC721Metadata: Price set of nonexistent token\");\n        require(ownerOf(_tokenId) == _msgSender());\n        _tokenMeta[_tokenId].price = _price;\n    }\n\n    function tokenPrice(uint256 tokenId) public view virtual returns (uint256) {\n        require(_exists(tokenId), \"ERC721Metadata: Price query for nonexistent token\");\n        return _tokenMeta[tokenId].price;\n    }\n\n    /**\n     * @dev sets token meta\n     * @param _tokenId uint256 token ID (token number)\n     * @param _meta TokenMeta \n     * \n     * Requirements: \n     * `tokenId` must exist\n     * `owner` must the msg.owner\n     */\n    function _setTokenMeta(uint256 _tokenId, TokenMeta memory _meta) private {\n        require(_exists(_tokenId));\n        require(ownerOf(_tokenId) == _msgSender());\n        _tokenMeta[_tokenId] = _meta;\n    }\n\n    function tokenMeta(uint256 _tokenId) public view returns (TokenMeta memory) {\n        require(_exists(_tokenId));\n        return _tokenMeta[_tokenId];\n    }\n\n    /**\n     * @dev purchase _tokenId\n     * @param _tokenId uint256 token ID (token number)\n     */\n    function purchaseToken(uint256 _tokenId) public payable nonReentrant {\n        require(msg.sender != address(0) && msg.sender != ownerOf(_tokenId));\n        require(msg.value >= _tokenMeta[_tokenId].price);\n        address tokenSeller = ownerOf(_tokenId);\n\n        payable(tokenSeller).transfer(msg.value);\n\n        setApprovalForAll(tokenSeller, true);\n        _transfer(tokenSeller, msg.sender, _tokenId);\n        _tokenMeta[_tokenId].sale = false;\n    }\n\n    function mintCollectable(\n        address _owner, \n        string memory _tokenURI, \n        string memory _name, \n        uint256 _price, \n        bool _sale\n    )\n        public\n        onlyOwner\n        returns (uint256)\n    {\n        require(_price > 0);\n\n        _tokenIds.increment();\n\n        uint256 newItemId = _tokenIds.current();\n        _mint(_owner, newItemId);\n\n        TokenMeta memory meta = TokenMeta(newItemId, _price, _name, _tokenURI, _sale);\n        _setTokenMeta(newItemId, meta);\n\n        return newItemId;\n    }\n}",
  "sourcePath": "/Users/User/nft-contracts-master/contracts/NFTT.sol",
  "compiler": {
    "name": "solc",
    "version": "0.8.9+commit.e5eed63a.Emscripten.clang"
  },
  "schemaVersion": "3.4.1",
  "updatedAt": "2021-10-22T16:09:41.020Z",
  "networkType": "ethereum",
  "devdoc": {
    "kind": "dev",
    "methods": {
      "approve(address,uint256)": {
        "details": "See {IERC721-approve}."
      },
      "balanceOf(address)": {
        "details": "See {IERC721-balanceOf}."
      },
      "getApproved(uint256)": {
        "details": "See {IERC721-getApproved}."
      },
      "isApprovedForAll(address,address)": {
        "details": "See {IERC721-isApprovedForAll}."
      },
      "name()": {
        "details": "See {IERC721Metadata-name}."
      },
      "owner()": {
        "details": "Returns the address of the current owner."
      },
      "ownerOf(uint256)": {
        "details": "See {IERC721-ownerOf}."
      },
      "purchaseToken(uint256)": {
        "details": "purchase _tokenId",
        "params": {
          "_tokenId": "uint256 token ID (token number)"
        }
      },
      "renounceOwnership()": {
        "details": "Leaves the contract without owner. It will not be possible to call `onlyOwner` functions anymore. Can only be called by the current owner. NOTE: Renouncing ownership will leave the contract without an owner, thereby removing any functionality that is only available to the owner."
      },
      "safeTransferFrom(address,address,uint256)": {
        "details": "See {IERC721-safeTransferFrom}."
      },
      "safeTransferFrom(address,address,uint256,bytes)": {
        "details": "See {IERC721-safeTransferFrom}."
      },
      "setApprovalForAll(address,bool)": {
        "details": "See {IERC721-setApprovalForAll}."
      },
      "setTokenPrice(uint256,uint256)": {
        "details": "sets maps token to its price",
        "params": {
          "_price": "uint256 token price  Requirements:  `tokenId` must exist `owner` must the msg.owner",
          "_tokenId": "uint256 token ID (token number)"
        }
      },
      "setTokenSale(uint256,bool,uint256)": {
        "details": "sets maps token to its price",
        "params": {
          "_price": "unit256 token price  Requirements:  `tokenId` must exist `price` must be more than 0 `owner` must the msg.owner",
          "_sale": "bool token on sale",
          "_tokenId": "uint256 token ID (token number)"
        }
      },
      "supportsInterface(bytes4)": {
        "details": "See {IERC165-supportsInterface}."
      },
      "symbol()": {
        "details": "See {IERC721Metadata-symbol}."
      },
      "tokenURI(uint256)": {
        "details": "See {IERC721Metadata-tokenURI}."
      },
      "transferFrom(address,address,uint256)": {
        "details": "See {IERC721-transferFrom}."
      },
      "transferOwnership(address)": {
        "details": "Transfers ownership of the contract to a new account (`newOwner`). Can only be called by the current owner."
      }
    },
    "version": 1
  },
  "userdoc": {
    "kind": "user",
    "methods": {},
    "version": 1
  }
}